:020000040000fa
:100000000200d2021003000000000002100b0000ea
:10001000000000021013000000000002101b00008e
:10002000000000021023000000000002102b00005e
:10003000000000021033000000000002103b00002e
:10004000000000021043000000000002104b0000fe
:10005000000000021053000000000002105b0000ce
:10006000000000021063000000000002106b00009e
:10007000000000021073000000000002107b00006e
:10008000000000021083000000000002108b00003e
:10009000000000020db8e490000278a4790180020b
:1000a000f0a3d8fcd9fa7aa57b009000e47809790e
:1000b000018015e493a3ad82ae838a828b83f0a383
:1000c000aa82ab838d828e83d8e9d9e71203b1125d
:1000d0000dd775d00075813f751c8075931e5392a6
:1000e000fe0200960010000000000200bb0102e7c3
:1000f00022c0925392fec082c08389828a83bb0051
:1001000003e08002e493d083d082d09222bb00151a
:10011000c0925392fec082c0838a838982f0d083ca
:10012000d082d09222bb0101f722cac0e0e6f309d7
:1001300008dafad0e0fa22cac0e0e0f208a3dafa5c
:10014000d0e0fa22600c08c6c313c618c613c6d581
:10015000e0f422700422600d18c6c333c608c6330b
:10016000c6d5e0f41822e4735392fed083d08225e2
:100170001cf8c51cc39824fbcef208e520f208e960
:10018000c0e07908e709f208defad0e0f9eff208fa
:10019000d0e0fed0e0f208eef208e473a81ce2fe24
:1001a00008e208f520e9c0e07908e208f709dffa7b
:1001b000e208ffd0e0f9e208c0e0e208c0e0881cf5
:1001c0005392fe22e584f208e585f222e208f584e6
:1001d000e2f585227403800474028000c9c0e0e562
:1001e0001cc399f51cc912012ad0e0f922740380be
:1001f00000c8c0e0e51cc398f51cc8120137d0e068
:10020000f82275bc0075bc005392fe22800f8a82d2
:100210008b835392fee0f5bda3aa82ab83ecf8ed8d
:10022000f9e824ff1ce934fffde84970e15392fe30
:1002300022e5bdf9e5bcfae9fb5392fe227400f514
:10024000d374022408f5d25392fe22a2afe433f80d
:10025000c2af5392fe906270e0a2e740f5e9c3336b
:10026000906272f0906270e0d2e0f0e0a2e740fbb2
:10027000e8a2e092af2274fa120168a2af33f8c28a
:10028000afed900002f0eca3f0a37462f0a37473de
:10029000f0a3e4f0e9a3f0a37412f0a37442f0eb2e
:1002a000906272f0ea906271f07400f5d575d40234
:1002b00075d601906270e0d2e1f0e0a2e740fbe881
:1002c000a2e092af7f0102019c5392fe906276e021
:1002d00075c6807480659e70fa9062707408f02212
:1002e000c008c0098908750900740b780812015309
:1002f000fae5094480fbd009d0085392fe2274f736
:10030000120168909093e064bf7063e5c7f508122e
:10031000020275c7007c937d007a007b9012020c6c
:100320007c5d7d077aa37b9012020c909094e01480
:10033000f5097f00801674032ffef91202e0eec467
:10034000540ff5c77c007d0812020c0fefc395090e
:1003500040e48508c71202318a088b09a808a90958
:10036000909095e0687003a3e069703e8038e5c71f
:10037000f5087fa57e02eef91202e08a828b83eef9
:10038000c4540ff5c778007908e02fffa3e824ffd5
:1003900018e934fff9e84970f00eeec3943040d606
:1003a0008508c7ef70047901800279007f0402019b
:1003b0009c5392fe900001e090001af0e59d5418c5
:1003c00064107005e0a2e04035e5c7f8790075c714
:1003d00000909000e0640270010988c7e9a2e05033
:1003e0001d1202fee960179000017403f00592905f
:1003f00000a5e0f582a3e0f58305921201661202e2
:10040000c9900001e4f012023d12069e1206ce12bf
:10041000071e80fb74f8120168151c151ca81c121d
:1004200001c490620ee0fee4f0906211e0ffa2e4ed
:1004300050197480f09000227407f01206276006ad
:10044000120643120166900022e4f0efa2e2500b84
:10045000906211e4f0900022f08060900022e0f8b9
:100460007402687042906216e0ff9000391201ed4c
:10047000eff97a207b621206da051c051c051c8f39
:100480000890003c12061c12060f2f1206321206ac
:100490002a6004744080027448906211f0e8496058
:1004a000030205fc0205df7406687006120643129b
:1004b0000166900022e06003020589efa2e040039c
:1004c0000205fc750831750900750a0078081201eb
:1004d000d479087a207b621206da051c051c051cfb
:1004e00090003ee4f0a3f0900031e054e0600e2470
:1004f000e0606a24a0604024e06071807ea3e01484
:10050000602624fe601d24fe600a24fc601f24fe79
:1005100060208067120a9f900022e0640470647477
:10052000608062120a9980ef120a9380ea120bcf60
:1005300080e5120d0680e0a3e0600e24fa600f242f
:10054000fe601024fe601180321208cf80c9120aaa
:10055000e780c4120ba980bf120ca880ba90003e9d
:100560007446f0a37407f012074680ab90003e7407
:100570001df0a37408f012081d809c9000227404e2
:10058000f0809c7440906211f0900022e0f87401b9
:1005900068705e7f0290003ce0f8a3e0f9c3e89445
:1005a00020e994005007e8f50a7f0a8003750a20c5
:1005b0009000391201eda90a7a207b621206f30538
:1005c0001c051c051c850a0812060f250812063298
:1005d00012061cef906211f0e50ac39420501d1220
:1005e00006276006120643120166900022e4f0809e
:1005f0000b7405687006120643120166ee90620ed7
:10060000f0a81c1201cc051c051c7f0302019c9064
:100610000039e0f9a3e0faa3e0fbe922c3e0950882
:10062000f0a3e09400f02290003ee0f8a3e0f9e8a7
:100630004922f9e43afa900039e9f0a3eaf0a3eb91
:10064000f0a322059290003ee0f582a3e0f5830539
:100650009222c008c0097800742328f582e434008f
:10066000f583e95392fef008e8c3940540ea780068
:10067000742828f582e43400f583e9f008e8c3948f
:100680000540edd009d008225392fe90001b740261
:10069000f0a3e4f0900022f0790312065222c00881
:1006a000c00975082175090078081201d87c007d01
:1006b000007a407b00120ddb051c051c90001b74aa
:1006c00002f090620f04f0e0a2e750fb80b553f413
:1006d000fed29043fe015392fe2212070c6010538b
:1006e00092fee012010de9240109e43afadcf0532c
:1006f00092fe2212070c60101200ec5392fef0e9f9
:10070000240109e43afadcf05392fe228a828b83b8
:10071000e9fca81ce2f908e2fa08e2fbec22eec0d0
:10072000e05392fe906206e0f8906202e0fe906272
:1007300004e0e8a2e25003120688eea2e0500312a1
:100740000414d0e0fe2274f7120168900032e070c9
:100750000302080214600302081290001a7401f0e8
:10076000900022e0f87038900037e0f8a3e0f9e854
:1007700049700d9000ab7402f0900022e40208175b
:100780009000397461f0a37400f0a3e4f0a3e8f0e2
:10079000a3e9f09000227402f09000ab048078741a
:1007a0000268706e900033e02440f508a3e0340046
:1007b000f509c39408400c900022e4f09000ab745b
:1007c0000a8054e508541f701285080a85090b74c5
:1007d00005780a120144a90a12024b900037e0245e
:1007e0000354fcf97c617d0074047808120153aa5b
:1007f00008ab09120276900022e4f09000ab740579
:10080000801590001a7402f0900022e4f075c90877
:1008100080069000227404f07f0402019c5392fe33
:10082000900032e06403701a90003974a7f0a3744a
:1008300000f0a3e4f0a37406f0a3e4f09000220417
:10084000f02280009000227404f0225392fe900067
:10085000a1e4f0a3740ff02274fa120168151c15bc
:100860001ca81c1201c4eafcebf87a007b0008808b
:1008700038e8604d05929000a1e0fda3e0f5838d7e
:1008800082a3e493fdec6d6034e96d70099000a1e2
:10089000e0faa3e0fb189000a1e02efea3e03400f4
:1008a000ff9000a1eef0a3eff09000a1e0f584a38b
:1008b000e0f585e4059293fe70b7e860047a007b6a
:1008c00000a81c1201cc051c051c7f0102019cc064
:1008d00008120c9a60030209a7a3e0f8a3e06003e2
:1008e0000209a7a3e064027002a3e060030209a763
:1008f000900031e02480600914604f14605c0209ac
:10090000a7e860030209a790002ee0600478018048
:100910000278009000a3e8f0a3e4f090002de060de
:100920000a9000a3e04402f0a3e4f0900022e06407
:1009300004601490003974a3f0a37400f0a3e4f0f1
:10094000a37402120cfdf0d0082290001be0640496
:1009500070559000a3e4f0a380d0e8547ff5089090
:10096000001be064047040e508c394065039741b12
:100970002508f582e43400f583e854806018a3a3c9
:10098000a3a3a3a3a3e0640370047801800278000a
:100990009000a3e88091e582240cf5825002058343
:1009a000e0640370e980e39000227404809874f995
:1009b000120168151c151ca81c1201c4e9fa90004c
:1009c00037120ca06003020a7d90001be0640460f3
:1009d0000b900035120ca06003020a7d900031e0fc
:1009e000541f6009146023146012020a7d900033c2
:1009f000e064017015ea90002d020a82900035e053
:100a0000547ff508900033e0600479008077e508b2
:100a1000c394065068e50890620ef0741b2508f533
:100a200084e43400f585900035e054806021ea606c
:100a300004741080027440906211f0ea6004740340
:100a40008001e40592a3a3a3a3a3a3a3f08025eab6
:100a50006004742080027480906214f0ea60047470
:100a6000038001e4c0e0e584240cf582e43585f5db
:100a700083d0e0f05392fe90620ee4800590002255
:100a80007404f07901a81c1201cc051c051c7f021e
:100a900002019c79001209ae2279011209ae22539b
:100aa00092fe900035120ca07018a3120ca07012c8
:100ab000900033e0f8a3e0f9e85480fae9fbea4b50
:100ac0006002801ce8906200f090001b6009e06406
:100ad00002700c7403f022e0640370037402f022cd
:100ae0009000227404f02274f812016812084b90ee
:100af0000033e0faa3e0f914600814600d146031cb
:100b000080377b007a0079018033eafb7a00790232
:100b1000120858120b94e92402f9e43afa89828afd
:100b200083e493f8740193f990003ce8f0a3e98022
:100b30001ceafb7a00790380047b007a00120858d3
:100b4000120b94a37b801200eca3f0a3e4f09000be
:100b500039e0fca3e0fda3e0feec4d4e90002270d6
:100b60000474048029e064046025900037e0faa34f
:100b7000e0fb90003ce0f8a3e0f9c3ea98eb995061
:100b80000890003ceaf0a3ebf09000227401f07fa3
:100b90000302019c900039eaf0a3ebf0a37480f00b
:100ba000900039e0f9a3e0fa22120c9a7010a31217
:100bb0000ca0700aa3e064017002a3e06003020ac3
:100bc000e0900039741cf0a37400120cf3f022744e
:100bd000f812016890001be064027003020c81901f
:100be0000035120ca06003020c81a3120ca060035c
:100bf000020c81900034e06003020c8112084b90db
:100c00000033e07003020c897b007a00790212083d
:100c1000588a088b09ae08af09ee4f606490003324
:100c2000e0f88e828f83a3a3a3a3a3e493c0e0e89c
:100c3000fad0e06a70d290001b7404f0e8a3f0755b
:100c40000a008e828f83a3a3a3a3e493f8e50ac3cb
:100c5000985044850a08741d2508f582e43400f58f
:100c600083e4f07b007a0079041208588a828b832f
:100c7000e58245836007a3a3a3e49370e6050a8099
:100c8000c19000227404f0800e90001cf090001bb4
:100c90007403f0f9120652020b8f5392fe90003348
:100ca000e0f8a3e0f9e8492274f812016890001b0b
:100cb000e064047019900031e064817011120c9da1
:100cc000700c900037e064017002a3e060079000b0
:100cd000227404801a900035e0241df508a3e03446
:100ce00000f509900039e508f0a3e509120cf3f0ce
:100cf000020b8ff0a3e4f0a304120cfd22f0a3e496
:100d0000f0900022042274f9120168151c151ca829
:100d10001c1201c490001be064046003020dab9040
:100d20000031e064016003020dab900037120ca0ab
:100d3000707912084b7b007a0079021208588a8277
:100d40008b83e5824583600fa3a3a3a3a3e493f859
:100d500090001ce06870de7b007a0279041208586b
:100d60008a828b83e582458360410592900033e05f
:100d7000f8a3e0f9900035e0faa3e0fb85828485d2
:100d80008385a3a3e493fcea6c7001eb600d0592ec
:100d9000a3a3a3e493fce86c4970bc741d2af582fc
:100da00074003bf583e85392fe80059000227404a2
:100db000f0020a855392fe2274fa120168151c157e
:100dc0001ceafeebffa81ceef208eff2aa1cab93a4
:100dd0007901120db480ee1200932274fa120168a8
:100de000e51c2406f8e2fe08e2ffee4f6014ecf882
:100df0008a828b83e8f0a3ee24ff1eef34ffff4ec0
:100e000070f27f0102019cffffffffffffffffff6a
:100e1000ffffffffffffffffffffffffffffffffe2
:100e2000ffffffffffffffffffffffffffffffffd2
:100e3000ffffffffffffffffffffffffffffffffc2
:100e4000ffffffffffffffffffffffffffffffffb2
:100e5000ffffffffffffffffffffffffffffffffa2
:100e6000ffffffffffffffffffffffffffffffff92
:100e7000ffffffffffffffffffffffffffffffff82
:100e8000ffffffffffffffffffffffffffffffff72
:100e9000ffffffffffffffffffffffffffffffff62
:100ea000ffffffffffffffffffffffffffffffff52
:100eb000ffffffffffffffffffffffffffffffff42
:100ec000ffffffffffffffffffffffffffffffff32
:100ed000ffffffffffffffffffffffffffffffff22
:100ee000ffffffffffffffffffffffffffffffff12
:100ef000ffffffffffffffffffffffffffffffff02
:100f000012010002000000205824feff0000010230
:100f1000030109021b0001010480250904000000ef
:100f2000fe01020409210d03e84000010104030948
:100f300004120342006c00750065006700690067d9
:100f400000610016034c006f007700200045006e22
:100f50000065007200670079000a03310032003337
:100f6000003400080344004600550000ffffffff67
:100f7000ffffffffffffffffffffffffffffffff81
:100f8000ffffffffffffffffffffffffffffffff71
:100f9000ffffffffffffffffffffffffffffffff61
:100fa000ffffffffffffffffffffffffffffffff51
:100fb000ffffffffffffffffffffffffffffffff41
:100fc000ffffffffffffffffffffffffffffffff31
:100fd000ffffffffffffffffffffffffffffffff21
:100fe000ffffffffffffffffffffffffffffffff11
:100ff000ffffffffffffffffffffffffffffffff01
:1010000002110802326cffffffffff023e5cffff90
:10101000ffffff023f0bffffffffff023fc2ffff8b
:10102000ffffff0226f0ffffffffff023c22ffff52
:10103000ffffff0240a4ffffffffff023f62ffff31
:10104000ffffff023ee6ffffffffffffffffffff87
:10105000ffffff023252ffffffffffffffffffff17
:10106000ffffffffffffffffffffff023d99ffffb5
:10107000ffffff024034ffffffffff023e1cffffa8
:10108000ffffff023277ffffffffffffffffffffc2
:10109000ffffffbf30f3f900000000000000000078
:1010a0000000bb7582fb75837f7400121123e47905
:1010b000347802b800028004f709d8fce4900302f7
:1010c000781a79078002f0a3d8fcd9fa7a1b7b0939
:1010d000901144786779028015e493a3ad82ae83c2
:1010e0008a828b83f0a3aa82ab838d828e83d8e918
:1010f000d9e775820c7583ff74021211237582ed96
:1011000075837f740012112375d00075813f75318e
:1011100000753202753303759f007593005392fe7c
:101120000210aec09ff59fe473d09f225392fed071
:1011300083d082c09fe493c0e0740193c0e0740246
:1011400093f59f220300000201020300000f00c379
:10115000a88ee8b19dcf7f5eb98b9f41efb055f46b
:1011600001fa00960064004b0032001e001400d605
:10117000be898e000106021213151429417671fff3
:10118000c1fbe84c90728be7b3518963ab23230218
:10119000841872aa612f3b51a8e53749fbc9ca0cd4
:1011a00018532cfd45e37102000040420f0000403f
:1011b0000000fffffffffaffffff0000800062005a
:1011c0000000ff7f0000050006000700000001008e
:1011d0000100000100010202030002000000000003
:1011e000020201000219000000093d0000e4ffffb7
:1011f000fffb349b5f8000008000100000000000b7
:101200000002000000ff00000000000805010000cf
:1012100000000001080500000000000007030000b6
:1012200000800001000080000004000000000007b2
:10123000090000000d00000104070000000000028a
:1012400001000002020000070a381b3e1b441b4a33
:101250001b501b561bc01aee1cd01ca81d3c1d4267
:101260001d800004058000040606000000800004c4
:101270000280000404800002000b000000800006d1
:10128000004817d0137c195a144e1df41cfe1b96ef
:101290001dba1acc0601ffffff0000000080ffff0f
:1012a000ffff00000000c000000012112cf4d30268
:1012b00012112c0cd40212112c37d40212112c84ce
:1012c000d40212112c9cd40212112cc4d40212117b
:1012d0002c14d50212112c44d50212112ca5d502c2
:1012e00012112cc1d50212112cddd50212112c02c3
:1012f000d60212112c5bd60212112ceada0212115c
:101300002c9edb0212112c3a8a0312112c528a03f2
:1013100012112cc38a0312112c068b0312112ccc30
:10132000f30212112c60f40212112cd6f4021211e5
:101330002cecf40212112c18f50212112c2df502ce
:1013400012112c86f50212112ca7f50212112c0590
:10135000f60212112c4af60212112cbbf6021211df
:101360002ce6f60212112c6af70212112c99f702e0
:1013700012112cb8f70212112cccf70212112c11f9
:10138000f80212112c5ff80212112c12ef02121146
:101390002c2eef0212112c64ef0212112c72ef02ac
:1013a00012112ca3ef0212112cd0ef0212112cd922
:1013b000ef0212112c1cf00212112ca2f0021211d9
:1013c0002c0ff10212112c60f10212112c8ff1027c
:1013d00012112ce3f10212112cb5f20212112cc0e1
:1013e000f20212112cf3f20212112c24f302121148
:1013f0002c75f30212112cb2f30212112cc08d03c2
:1014000012112ce08d0312112c098e0312112c6382
:101410008c0312112c778c0312112cd18c03121116
:101420002c718e0312112c888e0312112c4f7f0009
:1014300012112c7c7f0012112c6bf20112112cd88e
:10144000f20112112c1ef30112112c47f30112119b
:101450002c53f30112112c76f30112112cbaf30163
:1014600012112c01f40112112c5ff40112112cb293
:10147000f50112112c88f60112112c2ff70112110f
:101480002c55f70112112c99f70112112c32f80189
:1014900012112c47f80112112c85f80112112ca5fc
:1014a000f80112112c07f90112112c1af90112116d
:1014b0002c2af90112112c19fa0112112c29fb0105
:1014c00012112c9bfb0112112c4ffc0112112c3f0d
:1014d000b90112112ce5ba0112112c69bb011211cc
:1014e0002cbdbc0112112c2cbd0112112c66bd01aa
:1014f00012112c30be0112112cb1be0112112c9907
:10150000bf0112112caac00112112c9cc101121191
:101510002cd6c20112112c2fc30112112c97c3011a
:1015200012112c14c40112112cb5c40112112c2754
:10153000c50112112cc0c50112112c26c6011211b1
:101540002c94c60112112ce9c60112112c71c7018d
:1015500012112c27c80112112cddc80112112c9f69
:10156000ca0112112ccdcc0112112c14cd01121173
:101570002c90cd0112112cf9cd0112112c47ce0166
:1015800012112cf3cf0112112c93d00112112c1f28
:10159000d10112112c60d10112112ce1d2011211d2
:1015a0002c42d30112112c56d40112112c4cd5010e
:1015b00012112c7bd60112112cb6d70112112c8ed0
:1015c000d90112112c44dc0112112ce2dc011211a0
:1015d0002c8edd0112112c7fde0112112cf2de01a6
:1015e00012112c5ee30112112ce0e50112112cae58
:1015f000e60112112c00e90112112c20ea0112114e
:101600002c49eb0112112c60eb0112112c93fb02ff
:1016100012112cd2fb0212112cfffb0212112c2ce6
:10162000fc0212112c19fd0212112cf0fd021211f4
:101630002c28890312112c81890312112ce28903b1
:1016400012112c00800112112c1e800112112c3b52
:10165000800112112c58800112112c80810112116d
:101660002cee810112112c06840112112c6c8401c4
:1016700012112cf5840112112c35850112112c69df
:10168000850112112cab850112112c198601121142
:101690002cc7860112112cd5860112112c1088013d
:1016a00012112c468a0112112ccc8a0112112c0025
:1016b0008b0112112c448c0112112c6d8d01121111
:1016c0002c8d8d0112112cb48d0112112cf08d0175
:1016d00012112c238e0112112c0c920112112c3498
:1016e000920112112c80920112112cfa9801121100
:1016f0002c46990112112c87990112112c339a0151
:1017000012112cfa9a0112112c879d0112112cf43e
:101710009e0112112c649f0112112ca1a101121122
:101720002c18a20112112c5ca20112112ca8a201ea
:1017300012112c00a30112112ca1a30112112cebe8
:10174000a30112112c46a40112112c50a401121154
:101750002c87a50112112c2fa60112112cb5a60160
:1017600012112c10a70112112cd0a70112112c71eb
:10177000a80112112c0eaa0112112c2faa0112116c
:101780002c69ac0112112c9bad0112112c40ae0141
:1017900012112ca1ae0112112c7aaf0112112c7b67
:1017a000b00112112c73b10112112c84b10112116c
:1017b0002c8eb10112112c8bb30112112ce6b30146
:1017c00012112c15b40112112c7cb40112112cab86
:1017d000b40112112c3eb50112112cd2b501121117
:1017e0002c33b60112112ca9b60112112cdfb6014f
:1017f00012112c14b70112112c33b70112112c8cb9
:10180000b70112112ca6b70112112cd3b701121176
:101810002ce1b70112112c0ab80112112c79b80170
:1018200012112cb3850312112c6f860312112c9107
:10183000860312112cdc860312112c1f8703121150
:101840002ce38c0312112c4ca00212112c78a00254
:1018500012112cc0a00212112c1ca10212112c7dfd
:10186000a10212112c42a20212112c5da30212112c
:101870002cefa40212112c98a80212112c76aa02a5
:1018800012112c78ad0212112cbcad0212112ca831
:10189000ae0212112cadaf0212112c27b10212119f
:1018a0002c9cb10212112cc6b20212112c65f80246
:1018b00012112c91f80212112ca8f80212112cac62
:1018c000f80212112c46f90212112cfafa02121126
:1018d0002c00800212112c66800212112c838002cf
:1018e00012112cb0800212112cdc800212112c106b
:1018f000810212112c5f810212112c8e81021211b1
:101900002cf1810212112c4e820212112c1c830226
:1019100012112c96830212112c37850212112cef12
:10192000850212112c82880212112c098c021211cc
:101930002c4d8c0212112ca68c0212112c5c8d02e3
:1019400012112c278f0212112cb78f0212112cf8b2
:101950008f0212112c4e900212112ca6900212111d
:101960002ccb900212112c1e910212112c5f9102ad
:1019700012112cda920212112cfb930212112c0c70
:10198000940212112ca5950212112cbb9502121172
:101990002ce3950212112c85960212112c9a9602b4
:1019a00012112ccc960212112cd2970212112c6912
:1019b000980212112c9f980212112ce79802121112
:1019c0002cdb990212112c369a0212112c1d9b024b
:1019d00012112c909b0212112cd49b0212112cbac2
:1019e0009c0212112c229f0212112c529f021211e2
:1019f0002cd29f0212112c3ba00212112c718703d2
:101a000012112c7e870312112ca1870312112ce4d2
:101a1000880312112cf1880312112c1f8903121153
:101a20002c33ea0212112c52ea0212112c1deb0285
:101a300012112cc3ec0212112c21ed0212112c7682
:101a4000ee0212112cdfee0212112cce8b031211ba
:101a50002cfc8b0312112c268c0312112c85fd01fa
:101a600012112c0efe0112112c40fe0112112cb08d
:101a7000fe0112112c52ff0112112c7aff011211da
:101a80002ccbff0112112cd7ff0112112c934f0008
:101a900012112ce94f0012112cb2500012112cc55a
:101aa000520012112c63540012112c2955001211ee
:101ab0002c39560012112cd9560012112c565700f1
:101ac00012112c0c580012112c745a0012112cf403
:101ad0005a0012112c585b0012112c025c001211da
:101ae0002c035d0012112c085e0012112c9762006d
:101af00012112ce8640012112c9f670012112c5156
:101b00006a0012112c4f6d0012112c5f6f00121120
:101b10002c01720012112ca5760012112cfb7700fb
:101b200012112c8b780012112c15790012112c69ce
:101b3000790012112cd5830312112c538403121136
:101b40002c69840312112c7f840312112c958403b9
:101b500012112cb6840312112ccc840312112ce226
:101b6000840312112c46c30212112cd6c302121187
:101b70002c59c40212112c7fc40212112c4bc50225
:101b800012112c01c60212112c41c60212112cc7cf
:101b9000c60212112c39c70212112c9bc702121156
:101ba0002c18c80212112c2bc80212112c3fc8028b
:101bb00012112c74c80212112ca6c80212112cd8b2
:101bc000c80212112c1ec90212112c5ec902121178
:101bd0002cb2c90212112cc1c90212112ccac9029d
:101be00012112c5dca0212112c94cb0212112cbac4
:101bf000db0212112cc9db0212112cb7dc0212110c
:101c00002cc9dc0212112c67de0212112c1cdf021f
:101c100012112c85df0212112c9edf0212112cb43e
:101c2000df0212112c03e00212112c46e002121105
:101c30002c90e00212112cd9e00212112cffe002cc
:101c400012112c1fe10212112c37e10212112c5239
:101c5000e10212112ca8e10212112cffe102121173
:101c60002c4ce20212112c94e20212112cb4e2026a
:101c700012112cc7e20212112cd7e20212112ce928
:101c8000e20212112cf7e20212112c05e3021211ea
:101c90002c15e30212112c36fe0212112c63fe02e7
:101ca00012112ce8b20212112c0cb30212112c21c9
:101cb000b30212112cbfb30212112ce5b3021211a0
:101cc0002c18b40212112c85c00212112cb7c002bc
:101cd00012112cbec20212112c00800312112c62b0
:101ce000800312112c86800312112cd5800312114f
:101cf0002c29810312112cca810312112ce38103b8
:101d000012112cb6cb0212112cd3cb0212112ce3e0
:101d1000cc0212112c42cd0212112ceacd0212116a
:101d20002c69cf0212112c15d00212112c63d00293
:101d300012112cc8d00212112c2ed10212112c809b
:101d4000d10212112c0cd20212112c87d2021211c4
:101d50002c60d30212112c25e30212112c79e5021a
:101d600012112cade50212112cc9e50212112cfe44
:101d7000e50212112c2be60212112c5be602121165
:101d80002c8ae60212112cbee60212112ce6e602a3
:101d900012112c23e70212112c45e70212112c1408
:101da000e80212112c68e80212112c83e8021211c9
:101db0002ced810312112c54820312112cb48203d6
:101dc00012112cb6820312112ccc820312112c5743
:101dd000830312112c348b0312112c528b0312111a
:101de0002c8c790012112c6e7a0012112c557b006c
:101df00012112c5d7b0012112c657b0012112cbe80
:101e00007b0012112c607c0012112c5d7d001211e0
:101e10002c907d0012112c617e0012112cbf7e00cf
:101e200012112ca3100012112c538d0312112c1e11
:101e30008e0312112ca08e03e066701008a3e066da
:101e4000700a08a3e066700408a3e06622c3e79660
:101e50000809e7960809e7960809e796a2d265d02f
:101e60003322c3e09608a3e09608a3e09608a3e017
:101e700096a2d265d03322c021c3e096f52108a3f3
:101e8000e096422108a3e096422108a3e096422171
:101e9000a2d265d033e5217001d3d02122c3e796c9
:101ea0000809e7960809e7960809e79622c3e0962d
:101eb00008a3e09608a3e09608a3e09622c021c3f9
:101ec000e096f52108a3e096422108a3e09642217e
:101ed00008a3e09645217001d3d02122bb0102e77f
:101ee00022c0925392fec082c08389828a83bb0043
:101ef00003e08002e493d083d082d09222bb00150d
:101f0000c0925392fec082c0838a838982f0d083bc
:101f1000d082d09222bb0101f722080808eac0e073
:101f2000ebc0e086f0e7a4fa180986f0e7a42afae5
:101f3000180986f0e7a42afa180986f0e7a42afa15
:101f40001986f0e7a4fbe5f02afa190886f0e7a461
:101f50002bfbe5f03afa190886f0e7a42bfbe5f035
:101f60003afa18180986f0e7a4c5f02bfbe43afa10
:101f70001908e7c5f0c6a426f6e5f03bfbe43afafb
:101f80001886f0e7a4f6e5f00826f6e43b08f6e448
:101f90003a08f6d0e0fbd0e0fa22e4cfc0e0e4ce8d
:101fa000c0e0e4cdc0e0e4ccc0e075f020e626f669
:101fb00008e633f608e633f608e633f6181818eca8
:101fc00033fced33fdee33feef33ffc3ec9709ed49
:101fd0009709ee9709ef97191919400fffec97fc35
:101fe00009ed97fd09ee97fe191906d5f0bfecf73c
:101ff00009edf709eef709eff7191919d0e0fcd050
:10200000e0fdd0e0fed0e0ff221220711818181277
:102010001f9a122060191919221220601919190823
:102020000808e618181820e7e0121f9a1220711805
:10203000181822090909e719191920e7dc08080806
:10204000e618181820e703021f9a122071181818b2
:10205000121f9a12207118181812206019191922cb
:10206000e4c397f709e497f709e497f709e497f7ca
:1020700022e4c396f608e496f608e496f608e49699
:10208000f6226017080808c6a2e713c618c613c6ca
:1020900018c613c618c613c6d5e0e922601608088c
:1020a00008c6c313c618c613c618c613c618c61367
:1020b000c6d5e0ea22700908080822601618181828
:1020c000c6c333c608c633c608c633c608c633c639
:1020d000d5e0ea22e627f60809e637f60809e637ea
:1020e000f60809e637f622e026f608a3e036f608f9
:1020f000a3e036f608a3e036f622e026f008a3e0d7
:1021000036f008a3e036f008a3e036f022c3e697e5
:10211000f60809e697f60809e697f60809e697f63d
:1021200022c3e0c696f608a3e0c696f608a3e0c66a
:1021300096f608a3e0c696f622e056f608a3e05607
:10214000f608a3e056f608a3e056f622e647f6089e
:1021500009e647f60809e647f60809e647f622e0e9
:1021600046f608a3e046f608a3e046f608a3e046d4
:10217000f622e046f008a3e046f008a3e046f008a7
:10218000a3e046f022e066f608a3e066f608a3e0c6
:1021900066f608a3e066f622e0f608a3e0f608a3d8
:1021a000e0f608a3e0f622e6f008a3e6f008a3e6ce
:1021b000f008a3e6f022e0faa3e0fba3e0fca3e032
:1021c000fd22eaf0a3ebf0a3ecf0a3edf022e0fc9b
:1021d000a3e0fda3e0fea3e0ff22ecf0a3edf0a35b
:1021e000eef0a3eff022e0f8a3e0f9a3e0faa3e019
:1021f000fb22e8f0a3e9f0a3eaf0a3ebf022cac0c7
:10220000e0e6f0a308dafad0e0fa22cac0e0e0a3e0
:102210000592f0a30592daf6d0e0ca225392fefab4
:10222000e9fb7921e7f0a309dafae8f0a3ebf9f08a
:10223000a3ecf0a3edf0a3eef0a3eff0a3e520f004
:10224000a3e5f0f0a3e592f0a3e584f0a3e585f023
:10225000a3e581f0a3e531f0a3e532f0a3e533f087
:10226000a3d0e0fad0e0f0a3caf0eac0e0e0c0e01a
:102270007a007b00225392fecac0e0ebc0e07921d5
:10228000e0f7a309dafae0f8a3e0f9a3e0fca3e0a1
:10229000fda3e0fea3e0ffa3e0f520a3e0f5f0a39b
:1022a000e0c0e0a3e0f584a3e0f585a3d0e0f592db
:1022b000d0e0fbd0e0fae0f581a3e0f531a3e0f552
:1022c00032a3e0f533a3d0e0d0e0e0c0e0a3e0c06b
:1022d000e0ea4b70027a0122b90010bb0008e88adc
:1022e000f084f8aaf022e4fbc8fa22eb70227b10fb
:1022f000c833c8c933c9335007c39ac3dbf2800659
:102300009a50012adbeac833f4c8c933f4c9fa2267
:1023100075f008e4c833c8c933c933c99ac99b509a
:1023200004c92ac93bd5f0ecfbc833f4c8e4c9faa8
:1023300022600d08c6a2e713c618c613c6d5e0f37f
:1023400022600c08c6c313c618c613c6d5e0f42213
:10235000700422600d18c6c333c608c633c6d5e064
:10236000f41822253210af08f532400c15338008de
:10237000f53240021533d2af2200c0d0253210af63
:1023800008f532500c05338008f53250020533d27f
:10239000afd0d0222532f58210af08f532400c15af
:1023a000338008f53240021533d2af85338322c51e
:1023b000822532c582c583353310af07f533858258
:1023c000328007f533858232d2afc583222532f5bc
:1023d00082e43533f583222532f584e43533f585ff
:1023e000222532f8e43533f9222532fae43533fb7d
:1023f000222532fce43533fd22e4735392fe25326c
:10240000c582c0e0e53334ffc583c0e0e532c39543
:102410008224f810af088583338582328008858353
:1024200033858232d2afcef0a3e520f0a37821e647
:1024300008f0a3defaeff0a3e58124faf8e608f04d
:10244000a3e608f0a3e608f0a30808e608f0a3e670
:1024500008f0a315811581d0e0fed0e0f8158115b4
:10246000811581e8c0e0eec0e0225392fe2532c51e
:1024700082c0e0e53334ffc583c0e0e532c3958216
:1024800024f910af08858333858232800885833331
:10249000858232d2afcef0a3e520f0a37821e60802
:1024a000f0a3defaeff0a3e58124fbf8e608f0a341
:1024b000e608f0a30808e608f0a3e608f0a31581f3
:1024c0001581d0e0fed0e0f815811581e8c0e0ee7e
:1024d000c0e0225392fe853383853282e0a3fee082
:1024e000a3f5207821e0a3f608dffae0a3ffe0a33c
:1024f000c0e0e0a3c0e0e0a3c0e0e0a3c0e0e0a350
:10250000c0e010af0885823285833380088582322f
:10251000858333d2afd083d0825392fe02112953e8
:1025200092fe853383853282e0a3fee0a3f5207816
:1025300021e0a3f608dffae0a3ffe0a3c0e0e0a3f8
:10254000c0e0e0a3c0e0e0a3c0e010af08858232a5
:102550008583338008858232858333d2afd083d0a0
:10256000825392fe22c0925392fec0d02532c58281
:10257000c0e0e53334ffc583c0e0e532c395822473
:10258000f210af08858333858232800885833385d6
:102590008232d2afc8f0a3e9f0a3eaf0a3ebf0a334
:1025a0007921e709f0a3d8faecf0a3edf0a3eef05f
:1025b000a3eff0a3d0e0f0a3d0e0f0a3d0e0f0a32d
:1025c000e520f0a3e5f0f0a3d0e0f0225392fe85e1
:1025d0003383853282e0c0e0a3e0f9a3e0faa3e010
:1025e000fba37821e0f608a3dffae0fca3e0fda35b
:1025f000e0fea3e0ffa3e0c0e0a3e0c0e0a3e0f5bd
:10260000d0a3e0f520a3e0a3f5f0e0a3c0e010af75
:10261000088583338582328008858333858232d270
:10262000afd0e0d082d083f592d0e0f8d0e032e5b0
:1026300084f0a3e585f022e0a3f584e0f58522741b
:10264000048006740280027401c0e0f40412239432
:10265000d0e01221fe227404800a74038006740202
:1026600080027401c0e0f404122394d0e012220b23
:1026700022d083d082c5f0e493a3c5f0c395f0f5d2
:10268000f0e493a3c395f04005e5f0048001e47500
:10269000f002a42582f582e5f03583f583e493a367
:1026a000c0e0e493c0e022d083d082e9c0e0e493ac
:1026b000a3c386f0c5f095f0f908e493a386f0c5ae
:1026c000f095f0700be493a3c3994005e9048002f0
:1026d000a3e475f002a42582f582e5f03583f58345
:1026e000d0e0f9e493a3c0e0e493c0e022ffffff51
:1026f000c0e0c0d075d008c092c082c083c0f07561
:102700009800e5a8f8c2af5392fe9004e0e0d2e151
:10271000f0753400e8a2e7e433fee8a2e792af12d6
:1027200012f2d0f0d083d082d092d0d0d0e032c09c
:1027300082c0835392fe9004ade4f0a3f0a3f0a313
:10274000f0d083d0822274f712246a79001219fa29
:102750009003ef123966eac398f8eb99f9e824047c
:10276000fee439ff9003fc1230b9c3ee9cef9d40ac
:10277000299003fa1230b99003fee02af8a3e03b57
:10278000f9e8c39cf8e99df9122deba3ecf0a3ed59
:10279000f09003fcecf0a3ed80239003ef122c5b90
:1027a0009003fc122db79003fc1239669003f112ce
:1027b0002dee9003f8e070047402800114f07aedbd
:1027c0007b03123970800ff08532828533831226a5
:1027d0003774021223797f0202251f74f712246acc
:1027e000e9fe9003f9e0f8ee600924fe601d146034
:1027f0001a80329003f6e0a2e35009e860279003c4
:10280000f9148020c2e2f0d2e380199003f6e0a22e
:10281000e2500c740868600d9003f9e0048005c272
:10282000e3f0d2e2f09003f7e070089003f574ff54
:10283000f0804990600a1229e349703d90618fe071
:10284000c0e09003f9e0f87408c398f8d0e0b8004d
:10285000028004c313d8fcf52174ff652170099030
:10286000600ae4f0a3048010e5212401f8e43400b8
:10287000f990600ae8f0a3e9f01227460227d6741f
:10288000f712246ae9fe24fc600624fe602a800d0b
:102890009004c6e06401705d121712805890041a0b
:1028a000e064017013900414e4f0ee700b7b0912e5
:1028b00031b3fa7900123cd1900414e0700890040e
:1028c0001274fff0802f90618fe0ff79001219fae7
:1028d0008b22a922900416e02af8a3e039f9740f9c
:1028e0005ffae82af8e439f990040c122dee7a0a1e
:1028f0007b041239700227d674f712246a74fe1210
:10290000239412262f9004641229e32412fae43946
:10291000fb90605ce060088a828b83e0d2e1f0e8a3
:102920002430fce439fde82432f584e439f585905f
:10293000605ae0700690605ee0603a8a828b83e0c5
:10294000a2e1401dd2e1f0e82422f582e439f583ca
:10295000122c511223508c828d83e521f0a3e522a5
:10296000f0e40592f0a3f079008532828533835339
:1029700092fe0227cee8241ef582e439f58312394f
:102980005d858482858583e02ef0a3e03ff08c8214
:102990008d830592e0fca3e0fdc30592e09ca3e0db
:1029a0009d50c488828983a3a3a3a3a3a3a3a3a3a5
:1029b0008582848583858a828b83e0a2e1500474ba
:1029c000088002743e0592f07b028882898305921a
:1029d000a3a3a3a3a3a3a3a3e0fa7900123cd179f4
:1029e00001808612396ae82274f512246a74fe1294
:1029f000239412262f123099f584e43ff585059231
:102a0000e0fc7003022c4cee242ef582e43ff583ab
:102a100005921239668e828f83a3a3a3a3a3a3a3d7
:102a2000a38582238583248e828f83a3a3a3a3a35c
:102a3000a3a3a3a3aa82ab83ee24341236fd68704d
:102a400003a3e069702d74026c7003022be574011e
:102a50006c7003022ae1740c6c7003022c4c740d30
:102a60006c7003022c4c74096c60258a828b837411
:102a7000228059ec14606a147003022be524fa607a
:102a80001c14600c146046147003022c28022c4c99
:102a9000906008e0a2e65003022c4c8030ee24390e
:102aa000f582e43ff583801388828983a3a3a3e0a2
:102ab00064037003022c4c888289831229e34970d5
:102ac000e78a828b83e0641370037416f07b0285bf
:102ad0002382852483e0fa7900123cd17901022c0b
:102ae0004eee24551233eaee244cfce43ffdea247a
:102af000fff521eb34fff522e521687003e522693b
:102b00007079ee244d122ce48e828f83122c598c16
:102b1000828d83e025e0f8e433f9e82403f85001de
:102b2000098e828f83a3a3a3a3122def900495e0b7
:102b3000a2e0500d8e828f83a3a3a3a3a3a3122d83
:102b4000ee9004b5e4f0a3f0a3f0a37402f09004b7
:102b500095e0a2e04003022c4c906062e4f08c828d
:102b60008d83e0f875f0e2a4c8aaf075f004a42af9
:102b7000f9e812308e122dee022c4cea687002eb4e
:102b8000696003022c4c75210975220078211226f8
:102b900043ee241bfae43ffb121e2c74021223792d
:102ba000900495e0a2e05007eefaeffb1233f6e452
:102bb0000592f0ee2422f582e43ff5830592122c73
:102bc00051122350ee2430f582e43ff583e521f0e5
:102bd000a3e522f0ee2432f582e43ff583e4f0a38e
:102be000f07b08805ae8240108500109ee245c12a9
:102bf00036fd687003a3e0697052752105752200e7
:102c00007821122643ee2457fce43ffdee2424fafb
:102c1000e43ffb121e2c7402122379eefaeffb1232
:102c2000170ce40592f08024eefaeffb1212f8e4a0
:102c30000592f00592900495e0a2e0500f7b078585
:102c40002382852483e0fa7900123cd17900023195
:102c5000c5122de37403782122a3a3e028f0a3e09a
:102c600039f02274f812246a74fe12239412262f6b
:102c7000122cd91229e8e970501228f8e9704ae5b7
:102c800084242ef582e43585f583e02401f0a3e069
:102c90003400f0906008e0c0e0e5842436f582e47a
:102ca0003585f583d0e0f0e584241ef582e4358592
:102cb000122ce80592a3a3e028f0a3e039f00592d6
:102cc0009004641233f01239708532828533831296
:102cd00026377402122379803f900464e0f584a3c0
:102ce000e0f58522f582e43ff583122cee22e0f830
:102cf000a3e0f9e828f8e933f922ee241ef582e48e
:102d00003ff5831230a524fcf8e934fff98e828f59
:102d100083a3a3a3a3122dee7f0102251f74f71234
:102d2000246a74fe12239412262f9004d3eaf0a38f
:102d3000ebf09004d3e0f8a3e0f5838882a3a3ac82
:102d400082ad839004bac8241ef584e438f5850565
:102d500092e0f8a3e0f9e828f8e933f9900497e065
:102d6000f521a3e0f522122dcd0592e028f8a3e08d
:102d700039f98c828d83122dee9004b5122dc08c02
:102d8000828d83122db79004b7122dc07a207b4e0e
:102d90001222d8882189228c828d83e09521f0a38c
:102da000e09522f09004bc122dc0e828f8e933f930
:102db000e81230860227c7c3e098f0a3e099f0221a
:102dc00012396a900497122de3122dcd22e8852145
:102dd000f0a4c8aaf08522f0a42afa8521f0e9a47b
:102de0002af922e0f521a3e0f522229003efe8f092
:102df000a3e9f02274f312246a74fe1223941226bb
:102e00002f123099f523e43ff524852382f583e0e2
:102e1000640c7011906008e054036009852382857a
:102e20002483740df0ee2412f584e43ff5850592b9
:102e3000e0a2e35008c2e3f0059202306a8e828f6e
:102e4000830592a3a3858221858322906062e0603e
:102e50001079101219fa852182852283eaf0a3ebfa
:102e6000f01229e8e960030230731228f8e96003e0
:102e7000023073906008e0c0e0ee2436f582e43f53
:102e8000f583d0e0f09061d5e0f89061d7e0680577
:102e9000926005e0d2e28003e0c2e2f00592900485
:102ea000b71233f0906062e06016ea24c0faeb34a7
:102eb00037fb123ca69004bc1230a512308680125b
:102ec000123c909004bc122cea906064e028f0a3bd
:102ed000e0391230bf24fff0a3e034fff0ee242be2
:102ee0001236fd9004b9f0ee24201233eaee242ebf
:102ef000f525e43ff526ee245cf584e43ff585ea0c
:102f00004b7003022fa8900499e0f8852382852452
:102f100083e0fc70281230aa6003022fa8ee243947
:102f20001230ad6003022fa8e8a2e0407bea240142
:102f3000f8e43bf9900497e8f0a3e98055740d6c30
:102f400070661230aa7061ee24391230ad7059e803
:102f5000a2e04054858482858583852584852685e5
:102f60000592e0f8a3e0f90592e0c398f8a3e09990
:102f7000f9ea24010a50010bc398eb999004975089
:102f800006eaf0a3eb800b122dee852382852483c5
:102f900074021230bff8a3e0f99004ba122deeeedd
:102fa000faeffb122d1d805a9004977401f0a3e4f0
:102fb000f0ee241e122ce4852182852283122c5be4
:102fc0009004b5123966852182852283122db7853a
:102fd0002382852483e0640c7028852582852683de
:102fe000e02402f8a3e03400f90592e0faa3e0fb44
:102ff000c3e89ae99b400b852382852483740205ec
:1030000092f08e828f835392fea3a3a3a3a3a385e2
:1030100082848583859060641239667a717b02129e
:1030200022d88922e82405f8e43522f985848285ae
:103030008583122dee8e828f83a3a3a3a31233f078
:10304000858482858583e0f8c3ea98eb99a2d265ee
:10305000d0335007ea0592f0a3ebf05392fe1239f9
:1030600063852582852683122c5b9004641233f0dd
:103070001239708532828533831226377402122307
:10308000797f0602251f12308ee8f0a3e92224ea98
:10309000f8e93402f990606422900464e0fea3e051
:1030a000ffee240a22122ceee822ee2432f582e40e
:1030b0003ff5831230b9ec4d22e0fca3e0fd22f095
:1030c000852182852283e02274f512246a74fe121f
:1030d000239412262f8031c2e51231aec0e0900455
:1030e000c4e0123193d0e0f09004c4e004f0a3e017
:1030f00004f0a3e004f09004c8e0700c7401f07bcd
:10310000007a007900123cd190605ae0f52190607d
:1031100002e0a2e050047800800590605de0f89045
:1031200004c5e0fae52128f8e43400f9e86a700102
:10313000e960589004c4e0f52374012523547ff519
:1031400021e523123193e0f808089004c4e028f048
:1031500074802521f582e43460f58305929004643f
:10316000e0f8a3e0c82408f584e438f585e0a2e798
:103170000592e040030230d7d2e5f01231a524dbfe
:103180001231aefa1231a54a0230e7853282853318
:1031900083803b12319722547ff8748028f582e4b3
:1031a0003460f583229004c4e0123197e022f012db
:1031b00031b322900464e0f8a3e0c82408f582e467
:1031c00038f583e0228532828533835392fe1226be
:1031d0003774021223797f0402251f74f512246ac2
:1031e00074fe12239412262f89210592900464e024
:1031f000f582a3e0f583858284858385a3a3a3a3b9
:10320000a3a3a3a3e0a2e740469004c7e0f8906020
:1032100054e0c398f5229004c7e02522f0ae82afb7
:10322000838011ee2439fae43ffb12162eea4b603c
:103230000312183885222374ff2523f5220470e336
:10324000e521a2e640097900eefaeffb12179c0295
:1032500031c5c0e074f11225658535c675a70075c6
:10326000a1007950121a187f010225ccc0d075d068
:103270001875bf00d0d032c0e0c0d075d018c09251
:10328000c082c083c0f08535c6e591fe759b00f411
:10329000f5915392fe906002e0a2e0500478008025
:1032a0000278087900e844015e60031230c8eea29b
:1032b000e55004f91231dbeea2e75029e5a8f8c287
:1032c000af9004e0e0d2e0f0753400e8a2e7e43328
:1032d000f9e8a2e792afe594a2e24009759403e50c
:1032e00094a2e250faeea2e640030233b790606186
:1032f000e0f99004c5e4f09004c7f0900464123340
:10330000f08a828b83a3a3a3a3a3a3a3a3e0241087
:10331000601224fc600924fc700f1227db80661207
:10332000287f8061121652805c900494e06005143e
:1033300060148023906060e06480601be0c0e01255
:1033400033d4d0e08010906058e0f890605ce028c2
:10335000f81233d4e028f0906060e064806016e0fa
:10336000c0e0900464e0f8a3e0c82413f582e438d8
:10337000f583d0e0f0900495e0a2e05005122df422
:103380008003122c63906059e0f89004ade028f0bf
:10339000906058e0f89004aee028f090605a123344
:1033a000cb90605e1233cb90605ce0f89004b0e0ac
:1033b00028f01216408004a2e75003123a5dd0f0c4
:1033c000d083d082d092d0d0d0e032e0f89004af59
:1033d000e028f022ea242cf582e43bf583e0fa743d
:1033e0006f2af582e43404f58322f582e43ff58305
:1033f000e0faa3e0fb22c082c0835392fe9004b7a0
:10340000e4f0a3f09004b5f0a3f01216589004bcb9
:10341000eaf0a3eb02274074f712246a74fe122329
:103420009412262f9004641230b9123963ec2429c7
:10343000f582e43df583ec242bfae43dfb8a848b92
:1034400085740168497012e0f80592e028fac39487
:1034500025402974db2afa8023e0f521e88521f054
:10346000a4f8aaf08521f0e9a42af90592e0fae887
:103470002af8e439f97a257b001222d8eaf0ea1317
:103480001313541ff8ec28f8e43df9e82424f582de
:10349000e439f5830592e0c0e074075af8d0e0b84b
:1034a00000028004c313d8fca2e040288005e8cacb
:1034b000c39afaec24e5f582e43df583e0f8eac32b
:1034c0009850ebec2af8e43df9e824c0f582e439a1
:1034d000f583e0faec242cf582e43df583ea02273b
:1034e000c774f612246a74fe12239412262f9004d5
:1034f0001be09060026004740e8002740ff0900470
:1035000015e0906001f09009461221e69061951255
:1035100021f21217a890041ae0f521740165219098
:1035200004137040e05402f97a1c7b041216769062
:103530000413e0a2e050097aa17b047521408007c2
:103540007a9b7b04752100a2e150047e8080027e7c
:103550000075230678231226477c1c7d04e5214e46
:1035600044018068e0a2e050087aa17b04784080a2
:10357000067a9b7b04780005929004411226627cb7
:10358000227d04744a2521f582e43409f5830592ed
:10359000e048f912167c740112237990041ae0f8bd
:1035a0006005740268702e900413e0a2e050087a5f
:1035b000a17b04784080067a9b7b0478000592907a
:1035c00004611226627c427d04e84404f912167cf0
:1035d0007401122379900413e0a2e0e433f9121687
:1035e0007075910090041be0906182600474c88043
:1035f0000274c0f08532828533831226377402123a
:1036000023797f0302251fc082c0835392fe9060fe
:1036100002740ff09003f8e004f064037002e4f029
:10362000e02425906000f09009461221e690619513
:103630001221f29003f6e05420f91216701217a826
:103640009003f6e0a2e15004d2f08002c2f0a2f0b2
:10365000e43390600cf09003f6e0a2e1503575d9a8
:103660000da2e55004784080027800e84403f5d9c3
:10367000e0a2e550067aa17b0480047a9b7b047962
:1036800006121646740675d9001470fae5e170fc4e
:1036900075e19575910090618274c102274074f8bc
:1036a00012246a74fe12239412262f12373e121728
:1036b000a81237341221e69061951221f212376c6c
:1036c000123417123765f584e43ff58585848285c9
:1036d000858312374d12179cee24121236fda2e29a
:1036e00050180592e0f8a3e0f58388820592a3a321
:1036f000e02402f89061d5e028f0022cc9f582e4bc
:103700003ff583e02274f812246a12373e1217a89c
:103710001237341221e69061951221f212376c12a1
:103720003417123765f582e43ff58312374d1217cf
:103730009c022cfaee2414f582e43ff583229004d7
:1037400064e0fea3e0ff906002740ff02212396a79
:10375000ee2437f582e43ff583e8f0a3e9f0790041
:10376000eefaeffb221237b5ee243922ee243612a0
:1037700036fd906008f0ee24181236fd906005f0da
:10378000ee24191236fd906006f0ee241a1236fd72
:10379000906007f02274f812246a12373e1217a8bc
:1037a0001237341221e69061951221f212376c1211
:1037b00037b5022cfaee242cf582e43ff583e09035
:1037c0006000f07591009004d2e0906182f0227464
:1037d000f112246a74fe12239412262f75210075ab
:1037e00022007c6b7d04801f8882898312395d8c66
:1037f000828d83eef0a3eff088828983e521f0a328
:10380000e522f0882189228c828d8312395dee4f6a
:1038100070398c828d83eaf0a3ebf08a828b83e48b
:10382000f0a3f0aa21ab228532828533831226379a
:1038300074021223797f0802251fe5232527f8e566
:10384000243528f98a828b83122c59eef8eff988f7
:10385000828983a3a38a848b850592a3a3e0f523a1
:10386000a3e0f5240592e0c39523f523a3e0952476
:10387000f5248a828b83a3a3a3a3a3a3e0f525a3a6
:10388000e0f526c3e5239525e5249526a2d265d04b
:1038900033403e8a828b83122dee8a828b83a3a3d0
:1038a000a3a3858284858385123966c3e52398e5c1
:1038b0002499a2d265d033500d858482858583e515
:1038c00023f0a3e524f08c828d83eaf0a3eb023889
:1038d0002288828983a3a3a3a3a3a3e0f527a3e05f
:1038e000f528c3e49527f525e49528f526c3e525b5
:1038f0009523e5269524a2d265d03350288a828b61
:1039000083a3a3a3a3a3a3a3a3e0a2e75003023826
:103910003a88828983a3a3a3a3a3a3a3a3e0a2e7d6
:1039200050030237e888828983a3a3a3a3858284f6
:10393000858385c3e49523fce49524fd12395dc39a
:10394000ec9eed9fa2d265d033500b858482858595
:1039500083ecf0a3edf0e8fce9fd023807e0fea3fc
:10396000e0ff2290049712396a22e0f8a3e0f922de
:1039700074f712246a74fe12239412262fea4b6005
:1039800031a2afe433fec2af1237cf8a828b83807d
:1039900016aa82ab838582848583850592e0f582b1
:1039a000a3e0f5831237cfe582458370e4eea2e011
:1039b00092af0227c874f812246a74fe122394127c
:1039c000262feaf8ebf9e8497003023a58a2afe46f
:1039d00033f521c2af90046be0faa3e0ca2408f5e6
:1039e00082e43af583e06015a2e75011888289836a
:1039f000a3a3a3a3a3a3a3a3e0a2e74055900464b9
:103a000012395deefaeffb8a828b83a3a388848947
:103a1000850592a3a3e0fca3e0fd0592e0c39cfc16
:103a2000a3e09dfdc3ec9405ed123bfd4024eefcac
:103a3000effdec2412f582e43df583e0d2e4f0885a
:103a4000828983eaf0a3ebf090046b122dee7901ea
:103a50008008e521a2e092af7900022cc974f5122a
:103a6000246a74fe12239412262f79001219fa8afe
:103a7000238b247977121a189061b1e4f0e070f882
:103a80007401f0e0640170f890046b1239669004e0
:103a900064122deee8497012123c05e594a2e24052
:103aa00003023bf5759400023bf58882898312334b
:103ab000f090046beaf0a3ebf088828983a3a31251
:103ac0002de388828983a3a3a3a3e02521f8a3e0a3
:103ad0003522f9e824fdfee934ffff906060748030
:103ae000f0e521c39523e5229524fb122cd9e5238b
:103af0002401f8e43524f9858482858583a3a3a372
:103b0000a3a3a3a3a3e02410604d24fc600624fc1f
:103b1000600880631234e1023ba090046b122cdc3d
:103b2000e5844585602c0592a3a3a3a3a3a3a3a327
:103b3000e0a2e7401d123bfb501888218922c3e810
:103b40009ee99f4008e82401fee43522ff05921219
:103b50002deb1236078049123bfb50168821892233
:103b6000c3e89ee99f4008e82401fee43522ff12e5
:103b70002deb1217ae8029900495e0a2e0500512bb
:103b8000369e801ca985e5842412f582e439f583ec
:103b9000e0a2e45008c2e4f0123795800312370522
:103ba000aa21ab227930121a0ceefaeffb794012ff
:103bb0001a0c7954121a18e521c39523f8e52295b9
:103bc00024f9c3e89401e9123bfd500c1217c0e53b
:103bd000e170fc75e121801d900367e0a2e04012d6
:103be000aa21ab22121a069004b11221c2123c057e
:103bf00080031217c01218c802318bc3eb9400a2c5
:103c0000d265d03322e5a8f8c2af9004e0e0c2e06c
:103c1000f0753400e8a2e7a2e792af22853487c2ac
:103c2000af22c0e0c0d075d018c092c082c083c09f
:103c3000f074fc1223635392fe9004e1e0601c12c6
:103c4000166a900367e054117008e5c6543844873b
:103c5000f5c69004e1e4f0c2c78020c2c7aa32ab27
:103c6000331217bae9640170129004e17401f0850f
:103c700032828533831221b61218bc753400740465
:103c8000122379d0f0d083d082d092d0d0d0e0323d
:103c900075c3007420c39afa744e9bfbeaf5a2eb3d
:103ca000f5a35392fe22c02175c301e5a2f521e5db
:103cb000a375c300f9e5212420f8e9344ef9e8c3df
:103cc0009af8e99bf9e8f5a2e9f5a3d0215392fe11
:103cd0002274f512246ae9feeaff8b21753400a2f2
:103ce000afe433f522c2af900584e0f524740125da
:103cf00024540ff523900583e065237005790012a5
:103d00001a72e52475f003a4f8a9f0741128f87468
:103d10000539f9e82442f582e439f583eef0e82428
:103d200043f582e439f583eff0e82444f582e43981
:103d3000f583e521f0e523900584f0e522a2e092e9
:103d4000af7f0402251fc082c08374fc122363e589
:103d5000a8f8c2afe5958532828533835392fef091
:103d6000e596c0e074011223cdd0e0f0e597c0e005
:103d700074021223cdd0e0f0e8a2e7a2e792af747c
:103d8000031223cde4f08532828533831221b67489
:103d900004122379d083d08222c0e0c0d075d0181d
:103da000c092c082c083c0f0121bec123d46900648
:103db000161221c2e58955ab90061af0e5809006ef
:103dc0001df090061ae0f4f5899062d0e0f8a2e1c7
:103dd000502790061ae0a2e5501f53abdf9062d047
:103de000e0a2e0e433900620f090061ae0c2e5f08d
:103df0007b307a007906123cd190061ae0600e7b87
:103e0000007a007906123cd17900121bf8c2c5d0a5
:103e1000f0d083d082d092d0d0d0e032c0e0c0d0f9
:103e200075d008c092c082c083c0f0121bec123d56
:103e3000469006161221c2e58a558df890061bf0b1
:103e4000e59090061ef0e8f4f58a7b017a00790689
:103e5000123cd17901121bf8c2eb80b3c0e074f0c0
:103e60001225659061a9e06017c2afe589f8e5ab5e
:103e7000f975ab00e4f090624bf0888989abd2af62
:103e8000900625e0640f7012e5c7f8900368e0f52e
:103e9000c790ff1ce0f4f5ae88c7e5bbf8e5baf5be
:103ea00021e8fb900625e025e0f8e433f9742628a4
:103eb000f582740639f583e521f0a3ebf090062531
:103ec000e02410fb7a007906123cd1e5a8f8c2afd5
:103ed0009004e0e0c2e2f0753400e8a2e7a2e792c5
:103ee000af7f020225ccc0e0c0d075d018c092c010
:103ef000f0e5d1f875d100c2c0a2e350097b037a86
:103f0000007904123cd1d0f0023e15c0e0c0d0755b
:103f1000d010c092c021c022c082c083c0f0539292
:103f2000fe90078e124026602a900749e0700c74bc
:103f300001f07b007a007904123cd1ee90078ef0fc
:103f4000e5c1c0e074902521f582e43407f583d003
:103f5000e0800be5c4a2e650069007487401f00229
:103f60004015c0e0c0d075d010c092c021c022c0a2
:103f700082c083c0f0c2e95392fe90074be0fa90f2
:103f8000074ae09a543ff86029744c2af582e434d9
:103f900007f583e0f974012a543f90074bf089c17b
:103fa00090078ce06870197b027a007904123cd18a
:103fb000800ee5a8f8c2af9004e0e0c2e31240949e
:103fc0008053c0e0c0d075d010c092c021c022c0c4
:103fd00082c083c0f05392fe9008181240266029d8
:103fe0009007d3e0700b7401f07b00fa7904123c67
:103ff000d1ee900818f0e5f9c0e0741a2521f58299
:10400000e43408f583d0e0800be5fba2e65006908f
:1040100007d27401f0d0f0d083d082d022d021d04a
:1040200092d0d0d0e032e0f52174012521543ffe3a
:10403000a3e06e22c0e0c0d075d010c092c021c0f5
:1040400022c082c083c0f0c2ea5392fe9007d5e03e
:10405000fa9007d4e09a543ff8602974d62af58282
:10406000e43407f583e0f974012a543f9007d5f052
:1040700089f9900816e06870197b027a01790412b8
:104080003cd1800ee5a8f8c2af9004e0e0c2e41293
:1040900040948081f0753400e8a2e7e433f9e8a2a7
:1040a000e792af22c0e074f0122565906206e0f856
:1040b000900870e048f0906202e0543ff5217522cc
:1040c0000074047821122350900870e04521f0a379
:1040d000e04522f0906204e0543ef5217522007420
:1040e000097821122350900871e04522f090087061
:1040f000e054046007e054fbf0121d60900871e08a
:1041000054016013e054fef090087fe060097b03e7
:104110007a007907123cd1121d90900871e054206a
:10412000600de054dff07b027a007907123cd17514
:104130008b00c2e87f020225cc033f00000300048d
:10414000280d98089007900194011b0195111b08f8
:10415000f00939821f0ea4fecd82210622fb3818f9
:1041600018162118f0ef3818f2ed3828f2eb3868fd
:10417000f003392a1fe73f08f00428ba3868f039fd
:104180003c08f1053c88f1173ca8f10e3ce09f2c5f
:104190001f0128104a291fd63f15d0033827d00900
:1041a00038009004289f3f012815410198012801fb
:1041b0004a25d01f38041f831f0ea4fecd042205fc
:1041c000381421202807a0083f0628681527d0e9c1
:1041d00039202807d0f238832178f1023804218869
:1041e000f1083d0628a14001f0042884380428077e
:1041f000a005284d1528f1163c68f1143d77cf1223
:1042000040599202d80f3912d00739699222d0044e
:1042100039799242d004380528ef151e3fc09f041b
:10422000286c3f08f1233c88f1203d094028f1101b
:104230003d4540f7c759f2083d9303131183e1b997
:10424000f00f3c23e00d3f09d8ea38f9c30b3f6873
:10425000f1033d59f2f23c09d8f9390528bd15059d
:1042600028f01501900128214a051f48f00c3c0850
:10427000f10a3868f1033c98f106390c960528f9e3
:10428000150228843f47a00c960528f315531f05f7
:1042900028e31507288ced0528ec150128019571f8
:1042a0001b01280ce40528e515511f88f10b38087f
:1042b000f1073868f109390128214201f00b39472b
:1042c000d009383521063f28f1033838f103393554
:1042d0001f341f04280ce047d0033903280ce805dd
:1042e00028c815571f28f00638561f811f021f388f
:1042f000f0063930215b9005283b15fd3f88f1031e
:104300003d0428f7150528811547d0133808f10f0b
:10431000392c470cf00c38c403b4125c110c3e0469
:10432000f00a38c103802801a0411b063f30210458
:104330003f07284ced4c1b5b9047d0173827d00324
:1043400028e8390ea4fecd02220d390022083810cb
:1043500021002914e00328dd3c4c1bf13f05289e79
:1043600015ee3f46181221033f0528021588f1304b
:1043700039052811150128fb41302100291be00acd
:104380003d0428f61505280715f6c35192166a3b19
:10439000906b080428ed150428fe150bf0fb391767
:1043a000d004382d1f0128c43f0328214701f008fd
:1043b000390328314701f00439a2958090033fc2a8
:1043c0009500920328b615201b54900128b33f088e
:1043d000f10539052111900128214a38f1033900ee
:1043e00021023f302110216a030428c2156b0331da
:1043f00041224128f1093d02f00239f29101f00b0e
:1044000039ff28f191083f02f00239529201f0037e
:1044100039ff28f193f7cb1b06023907a4b20c072a
:104420003d47d003286e3824900328753f1690b678
:10443000080428b115a6030428ae153be0f7ce28e2
:10444000f1703c012807a0f090a00668f1323d14fd
:104450009030f0053938f103285e38073f50f003fb
:10446000285a3958f10328573838f104380328ab53
:1044700015033f0328891503287515012807d00364
:104480003907a1563f424130f00c3907a112d00341
:104490003807d84e3887a0c14041d04a38f7ce48b7
:1044a0003f38f1033822d0443807d8423907a140b9
:1044b0003f78f1123847d02d3800f0033860f0060d
:1044c00039c14011d0073887a0113f10f0033820c0
:1044d000f0ab3977cf0b3f00f0033810f0a539412e
:1044e0004181d0043903285015093f03286c156811
:1044f000f10539414141d0023907b810f0063903be
:10450000283115012807d0033807d8123907a11020
:104510003f40f00228fc390328141507d8f8380862
:104520003fa10383403112310511d0023907a14b5d
:10453000f0063c04281d1504282e15fa3f042818ff
:10454000151bf0fd3d38f103380328a115f7cd0305
:1045500028214701f005390328314701f0033807c6
:10456000a2f7ce224082d00a38060304281415068a
:104570009376062611960404280e15710341120045
:104580002871c021070438e7cf4198043f17d004b1
:104590003951980728214817d00538f2952028006e
:1045a000901d3f07d20438c2950092183f07d104ee
:1045b00038d2950094133f07d40438e29500980e42
:1045c0003f809028f10a3d3190a10631f006390371
:1045d000a4b2950228aa1500a1a2950228a615202a
:1045e0001b28f1633d08f10a39012807d007390774
:1045f0002851411128c14a012807a017d20539e3e3
:10460000cf8ad0023813a007d20539b3cf4ad002df
:104610003843a083d01e3931031112310521d00750
:1046200039319907282148002915e0133f52950296
:10463000287c15454003d10d39429502287615286e
:104640001f21990728214803d20438629502286d5a
:104650001573cf834808f1093977cf17d00639078a
:10466000d203390ad1023887a0349007d20738071d
:10467000d803383090543f07a8023ff7c718f15ac3
:104680003927d04c39314011d0493987d0073917f3
:10469000d0453907d203390ad1413805f04b3941a9
:1046a0004001f0483850903b3f68f1153878f139b7
:1046b00038149017d03d3907d23d3987d0033834ac
:1046c00090393f07d1373911900128214a40900392
:1046d000286e15253f47d01c38249007d30c39117c
:1046e000900128214a87d008385144002911e0045c
:1046f0003a514c023877cf17d01b3987d003383462
:1047000090193f07d31739c14021d01438073f17fc
:10471000d00f3907d303383090023f009044900afd
:104720003f249017d0053907d305393490033fa0b3
:104730009f44900221c190511b8121342124f00813
:104740003927d004390c9cfd2bae3f10904490b714
:10475000cf34f00e3953210328e195711b541f0ffc
:1047600028cc9506282141f1c081111c09143f0174
:1047700090511b0728f19f711b802114f00128869e
:104780003854f0fd2b0a380128ad3f541f0328642c
:10479000151028cced03286d1576217821501f01c6
:1047a00028a29a217001b2218001b221802ce3035a
:1047b00028601574210128ace408f1073c88f10356
:1047c0003d0228971503282115011f0128349d0358
:1047d000285015201f002168f0093d069058f0036d
:1047e000390728364102289315fa3f0728504078a8
:1047f000f10439331f321f0421500000dc01287cf2
:104800003828f1103d8340f7cb31031112310521d7
:10481000d0033903d1033900d8103807a41b901aec
:1048200090163f00d80128683998f107394b70017c
:1048300028e2412b0800288e3f102807a04b701b50
:10484000f0fc2bed3c4a70224128f1303d02f00291
:1048500039f29112e0b20cfc2be23c41903106118e
:1048600011ff2be29f3204520022111a042a043253
:1048700040002862c018f1033927d00d3922f00911
:104880003907280141b109002921e0093a0aa107a5
:104890003f42f00339face033f62f0f93818f125b0
:1048a0003977cf0ad1223887a0203f02f00239524f
:1048b0009212e0b20cfc2bb33c68f1123d38f115ba
:1048c0003887d013390128314201f00f38402807ca
:1048d000a00728914231c0c1a00728914a063f0293
:1048e000280190710621121a04ff2bf29fb2084b87
:1048f000e0a60302280c1526030228091568f129f1
:104900003cfbf0273c6290467002280115d2370428
:1049100028609662904670062d0128f915c23778f6
:10492000f11839d04000d81538dbf0133c8290469e
:10493000700128ed15d237764400d40338060e02f4
:104940003f060d41700128e315417086120128dff2
:10495000153290b20c053d46700128d915fb3f0871
:10496000f1063941721128c14a012807a0ef28f742
:10497000cf28f11e3d83403090a006310311123143
:104980000521d003398295043f30f0043972950037
:1049900028cc1553c843d0023823a007d4023803cb
:1049a000a130f0023903a2834892950028be150673
:1049b000900bf005380128ab15591ffb3f0ea4fee4
:1049c000cd0122043902286a15fa3f551f1121032f
:1049d0001f249008f10f390ad1033987d0243831c8
:1049e0004011d0213905f02139414001f01e3850e5
:1049f000901b3f48f1073828f1033858f1063987f2
:104a0000d0143877cf1490113f78f1053911900107
:104a100028214a093f98f10939829500288a1528ea
:104a20001f5490033f009044900ea4fecd03220437
:104a30003902283415fa3f13212c1801210321745f
:104a40001ff1900000f1370190511b0728f19f7171
:104a50001b802132210728914231c00728914abf8b
:104a600028f7cf28f1063c88f1043d92955e152881
:104a70001f44f0383814f00a3854f0fb2b8e3801fc
:104a8000280ce40128f615fc2b023f0128901500a4
:104a90009027d0283902d8083838f12439329001cb
:104aa000289215e237193f19e089f2043c38f11acf
:104ab00039599238f10339012886151240910300c3
:104ac0002951e2120e12d0f038012886150128b9ba
:104ad000151240012891153199072821482c18fefc
:104ae0002b553f0128104a0028a915fb2b2b3ff01e
:104af0009f043fd09f023fb09f0028d0152c1ff28b
:104b00003f28f1053c68f1033d1490053f209002d9
:104b10003f1090449041980728214838f1fe2b0a15
:104b2000380028b515fe2b063f217011e0218002c8
:104b3000000128214107282148217811e02188021d
:104b400000f7c7761571033112a10501d4023907a8
:104b5000a80428649631150238f7c70428c4f6fb68
:104b60003c0200fe28f7cf641551417111a10501e7
:104b7000d80339012807a064911f150338fe28f7d0
:104b8000cfc4f1fb3c0200f7c7531551410228077f
:104b9000a00ad40339fd28f7cf5111a10501d40291
:104ba0003907a8c4910428659607150238f7c75637
:104bb0003124f2fb3c02000028db150028ec1541f3
:104bc0002d160c0200f7c73415d032d332234268b9
:104bd000f109394141904041d004385000030602a8
:104be0003f03033142022807a00ad404395100fdd3
:104bf00028f7cf13064492042865960028b91500bb
:104c000028ca155631ff28e19f4070060c02381360
:104c1000068ea0810064e044f5f83c0029f4e2a48b
:104c2000f2ed3c03f0023807a8d32fd02f02009bef
:104c3000f0023c020007a12de0020098f1093810b3
:104c40002807d0033908f10438319907282148088a
:104c5000f10c39012807d00938072851411128c023
:104c600042010c0338072850491190082807d00545
:104c7000380628b148f728f7cf042807d0053806aa
:104c800028a148fb28f7cf3021291f0200311fff40
:104c900028f19f411b301f31210200022101210315
:104ca00021532309380628d14001d11238419807f1
:104cb0002821480b3f54230c385021f1910000f17a
:104cc00037741ff1900000f13768f0023c2b1f0190
:104cd00090511b81210728f19f711b80210728918a
:104ce0004231c00728914abf28f7cf322134210230
:104cf00000082807d007390628b14001f004380819
:104d00002807a0020004280d98fe2bf43f40280736
:104d1000d00d390ea4fecd012204390028bf15faaa
:104d20003f661b112100291be002000728a64a0e3e
:104d3000a4fecd012204390028b115fa3f01283123
:104d400042b10941e0053a08384bf00c38ea3d071a
:104d500028a142611be73f0728914271cf072891a4
:104d60004af73f0728914281a20728914ada3f0e6d
:104d7000a4fecd0222043900289115fa3f461812ec
:104d80002100291be01bf00639581f0628e04001ce
:104d900028004a020017d00a393122063817a041ec
:104da0009807282148033f0728a6480200124038e8
:104db000f1093802d807399103002941e2120e1295
:104dc0000d1248020047a07b280c9c10215215ffb1
:104dd0002b5e15b7cf020059f203396391083f6982
:104de000f20339e392043f79f20339439602000457
:104df000280d98fa2b143f02d4073891030029019b
:104e0000e2117006286148020088f10a3c0128314d
:104e1000410728814ab1460328314fa1460f3f0779
:104e200028894a28f1063d31440328314f51400575
:104e30003f552851950328314f81110328214f02f6
:104e400000e3f3033cf190033f23e0519206286115
:104e50004a0628434802007b21772141900000f157
:104e600037702175217a218cee0415521f801f02a4
:104e7000004c1b001f47d0033827d009390ea4fe71
:104e8000cd002203390b15f73f1021020004280d35
:104e90009838f1fe2b2738fe2b3c3fd23202180106
:104ea00019210601d41a381218162162f003392a82
:104eb0001f2d3f12f2153822f22838fe2bef15680d
:104ec000f0063c61900128114afe2bb815302128cc
:104ed0000304280d98f92b373f01d11438142120f1
:104ee0002807d00d3878f1123904231038714401a5
:104ef000f002398144002911e0714c083f20280755
:104f0000a0053f01d20538152127a0d22f0200119c
:104f1000d00638102104280d98fd2bf33ff2ce5215
:104f200000121bf43f0306030202030302060203fe
:104f30000301050202010001010101010000030259
:104f4000000005000207070002030101010202013f
:104f50000f000803050502070406080606050304fa
:104f6000040103060202010109010102010102011b
:104f70000000000302020105050201010305000112
:104f80000002030100000002010404020302040104
:104f900004010074f51223fbeafeebff8923e9c349
:104fa0009411400375231085232175220078211266
:104fb0002643121e2c740212237974106523602676
:104fc000852382aa827410c39af52195e0f5227890
:104fd000211226437c007d00ee2afae43ffb121edc
:104fe00032740212237902551674f01223fb74fef8
:104ff00012239412262f8a848b850592a38a828b92
:10500000830592e0600624026060806590064ae4b1
:10501000f00592e0f5250592a3f0752200240250d8
:10502000020522e4c522f521e4f523f524f526f551
:1050300027f5289009d878251220e79009dc7825f3
:10504000122139740878251220b57821792512218a
:105050004c9009e0782112215f90064678211221b8
:10506000a7ea2402f521e43b801b0592e070028050
:10507000fe12764d74fff0a3e412624d1277d774de
:1050800005f0e4f521f522782112264390064b1213
:1050900064df790612677e1223f974021223798580
:1050a000328285338312263774021223797f0802f5
:1050b00024d374e81223fb74fe12239412262f7457
:1050c000fb1223638a848b85752d00752e008584e1
:1050d000828585837821122198e5c7c0e074041287
:1050e00023cdd0e0f0900368e0f5c7858482858504
:1050f00083a3a3a3a385822f85833012769c8a295c
:10510000e4f52af52bf52c78291220e790f7e81220
:1051100052bcf528740b78251220b5782979251210
:105120001e9d500302526c0592a3a3a3a3a3059254
:1051300090f7e41252bc740b78251220b5782179cf
:10514000251220d4eafee5215403fc70030251d756
:1051500074031223cd74fff074021223cd74fff098
:1051600074011223cd1252b18c82aa827404125a95
:105170005b50057404c39cfe8e25752600782512ad
:105180002643ac84ad8574021223cde5822afae46d
:105190003583fb121e2c74021223797904ac32add4
:1051a00033852125852226852327852428740278a6
:1051b0002512209caa25ab26121430e5842ef584f6
:1051c000e43585f585852f82853083e0c39efe908a
:1051d00009e478211220e7eec394044031eef9ace3
:1051e00084ad85852125852226852327852428745d
:1051f00002782512209caa25ab261214308e25e5b4
:105200002554fcf8e58428f584e43585f585740398
:105210005efc605e74031223cd74fff074021223ef
:10522000cd74fff074011223cd1252b18c25752676
:10523000007825122643ac84ad8574021223e9124e
:105240001e2c7402122379ac32ad338e25e4f5277f
:10525000f528782179251220d47402782112209c17
:10526000aa21ab227404f91214308006752d8075c2
:105270002e0174041223cde0f5c790064ae52df007
:10528000a3e52e1264cc7407126a35122643126706
:10529000741223f97402122379740512237985326a
:1052a0008285338312263774021223797f100224f9
:1052b000d374fff0853282853383f022e0f525e454
:1052c000f526f5272274e81223fb74fe12239412ac
:1052d000262f74c01223638a828b83858284858300
:1052e000850592a3a3a3a3e0fee5c7ff900368e0b2
:1052f000f5c790f7e8e0f525e4f526f527f52874dd
:105300000b78251220b5eec3944140027e400592f1
:10531000782912219878257929121e9d400302547c
:1053200000852921852a22852b23852c248e2de496
:10533000f52ef52ff5307821792d1220d4782179aa
:1053400025121e9d5005e529f404fe90f7e4e0f5d2
:1053500021e4f522f523f524740b78211220b57889
:105360002979211220d4852921852a22852b23857c
:105370002c24740f782112209ce521f5238523c766
:10538000ac29e52a4480fd8e82858225752600ecb5
:105390002ef521e43df522c3e5259521e495225023
:1053a0000c782512264374021223e98049e525c3af
:1053b0009521f525e49522f52678251226437402d9
:1053c0001223e9121e2c740212237974012523f58d
:1053d000c778211226437c007d80c3e49521fae43e
:1053e0009522fb74021223cde5822ef8e43583f971
:1053f000e82afae93bfb121e2c7402122379800280
:105400007e008fc7ee90064af0f525f582ac827dce
:10541000002401125746f526f5279009e478251255
:1054200020e7740878251220b57821792512214cbf
:105430009009e8782112215f90064678211221a771
:10544000a832a9338821892278211226437a467b03
:1054500006790512677e1223f974021223797440cb
:1054600002529b74f51223fb74fe12239412262f12
:10547000eafeebff7523008e828f83a3e0fb74ffaf
:105480006b601e7c007d007a0479008e828f83e041
:1054900025e01262271267831223f9e9700375234e
:1054a000018e828f83a3a3e0fb74ff6b60347c00ca
:1054b0007d007a0379008e828f83e025e0fee4335d
:1054c000ff742c2ef584740a3ff5850592126783cc
:1054d0001223f9e97004d2f08002c2f0a2f0e433a2
:1054e0004223e523a2e05006788079018004780009
:1054f000790012551b740e126a3512264312677416
:105500001223f9740212237985328285338312269d
:105510003774021223797f030224d390064ae8f0fd
:10552000a3e9127880e4f0a32274ec1223fb74fe4a
:1055300012239412262f74c01223638a848b8585cc
:105540008482858583a3a3a3a3e0f8c39440500479
:1055500088218003752140e5c7f5228584828585f1
:10556000837825122198740f782512209ce525f563
:10557000c7852182ae828e237524007823122643ac
:105580008584828585837825122198ac25e526447b
:1055900080fd74021223e9121e2c740212237985f5
:1055a00022c78584828585831221e690064a1221ce
:1055b000f2ee90064ef02405e43400f526e4c5260c
:1055c000f525e4f527f528e0f529e4f52af52bf58e
:1055d0002c9009ec78291220e79009dc7829122117
:1055e00039740878291220b57825792912214c9030
:1055f00009f0782512215f90064678251221a7a888
:1056000032a933882389247823122643eefc7d00b7
:105610007a467b06790912677e1223f974021223f7
:105620007974401223798532828533831226377448
:10563000021223797f0c0224d374f61223fb74fe2a
:1056400012239412262f74f912236312168e7f00f0
:105650007e00ac32ad3374011223e9eef91219e881
:10566000e9601c74011223e9853282853383e0f9f5
:10567000121682e9600890064a126254800e0f0edc
:10568000eec3940840cc90064ae4f0a3f0ef126217
:1056900059126f227407126a351226437c007d006e
:1056a0007a467b06790712677e1223f97402122369
:1056b000797407800e126a3512264312677412231a
:1056c000f974021223798532828533831226377466
:1056d000021223797f020224d374ec1223fb74fe9e
:1056e00012239412262fe9fe8c258d2690064aea75
:1056f000f0a3ebf0eea3f0f529f582ac827d002457
:1057000003125746f52af52bf52c9009f478291247
:1057100020e7740878291220b57821792912214cc4
:105720009009f8782112215f90064678211221a76e
:1057300078251226437a467b06790712677e122364
:10574000f97402025623e43400f522e4c522f5215f
:10575000e4f523f5242274f61223fb74fe1223943d
:1057600012262f74fc122363ea14600614603b02b5
:105770005807900615e024026005146009800e9019
:10578000064a7484800c90064a748a800590064a02
:105790007485126a221226431267741223f9740266
:1057a000122379900615e4f0805d7e00aa32ab33b7
:1057b000eef91219e2e96048ee90064a12626a9028
:1057c000064bf074011223cde0540190064cf074a6
:1057d000031223cde090064d126f017480f0a37484
:1057e000041264c614126a351226437c007d007ac6
:1057f000467b06790812677e1223f9740212237918
:105800000eeec3940840a574040256c374f212232a
:10581000fb74fe12239412262f8922ebfeea600d00
:1058200024fb6029147003025a02025a1e900615c6
:10583000e0fa7440125a5b4003025962e0f8744087
:10584000c398f52402596490061574fef0ee7003b7
:10585000025a1e900615e0a2e75027eec39441407d
:10586000047f408002eeff7cd57d05effb125a33aa
:105870001267831223f9e9cec39efe7003025a1efb
:1058800080d9c39404504ce0701605929009fc1224
:1058900026567b017a007908121a2a740412237999
:1058a000900615e0f87404c398125a66500ae0f89e
:1058b0007404c398f52180028e21125a50ab211234
:1058c0005a331267831223f9e9cec39efe90061560
:1058d000e029f0e0c39404500302584de0640470e2
:1058e000189005d5e06003025847a3e0c3943d40fb
:1058f0000890061574ff02584c900615e0f89005c4
:10590000d6e02404c398f8c39e5004882480028ef5
:1059100024e8601e900615125a50ab24125a331216
:1059200067831223f9e9f8e524687006900615e00c
:1059300029f0e524cec39efe900615e0fa9005d628
:10594000e0790024045001096a49600302584d902f
:105950000615e0f97ad57b05121b26900615e402a0
:10596000584c8e24e524c39e50030259fe852425fd
:10597000752600782512264374d52afae43405fbef
:10598000121e2c7402122379900615e02524f0e0f3
:10599000c394045003025a1e9005d6e0fc900615ed
:1059a000e0faec2404f8e43400f9ea98e499406e53
:1059b00074042cf524f97ad57b05121b26a82490b3
:1059c0000615e0c398f07c00900615e0f8ecc3984b
:1059d00050bd8c82a882852425e82525fae4340070
:1059e000fb74d52af58274053bf583e0c0e074d5dd
:1059f00028f582e43405f583d0e0f00c80ca790004
:105a0000801ee5c7f525900368e0f5c790ff25e007
:105a1000f974ff6960057a00121c288525c7790191
:105a200085328285338312263774021223797f06ea
:105a30000224d37a027900e52225e0f525e433f546
:105a400026742c2525f584740a3526f585059222c1
:105a5000e0f874d528fce43405fd22c39a125a6696
:105a6000a2d265d03322f895e0f98e25c3e89525ba
:105a7000e994002274f61223fb74fe12239412267a
:105a80002f8a828b837c007d00e0f8c3940340055d
:105a90007c800d80548582848583850592a3a3e84c
:105aa00070150592a3e0f58f0592e0600553f7dfce
:105ab000803743f720803274016870150592a3e0a7
:105ac000f5f60592e0600553f7bf801d43f740806f
:105ad00018e06004780080027880e5f75460fa05e9
